{
  "_format": "hh-sol-artifact-1",
  "contractName": "DocumentRegistry",
  "sourceName": "contracts/DocumentRegistry.sol",
  "abi": [
    {
      "anonymous": false,
      "inputs": [
        {
          "indexed": true,
          "internalType": "bytes32",
          "name": "documentHash",
          "type": "bytes32"
        }
      ],
      "name": "DocumentRegistered",
      "type": "event"
    },
    {
      "inputs": [
        {
          "internalType": "bytes32",
          "name": "documentHash",
          "type": "bytes32"
        }
      ],
      "name": "registerDocument",
      "outputs": [],
      "stateMutability": "nonpayable",
      "type": "function"
    },
    {
      "inputs": [
        {
          "internalType": "bytes32",
          "name": "",
          "type": "bytes32"
        }
      ],
      "name": "registeredDocuments",
      "outputs": [
        {
          "internalType": "bool",
          "name": "",
          "type": "bool"
        }
      ],
      "stateMutability": "view",
      "type": "function"
    },
    {
      "inputs": [
        {
          "internalType": "bytes32",
          "name": "documentHash",
          "type": "bytes32"
        }
      ],
      "name": "verifyDocument",
      "outputs": [
        {
          "internalType": "bool",
          "name": "",
          "type": "bool"
        }
      ],
      "stateMutability": "view",
      "type": "function"
    }
  ],
  "bytecode": "0x6080604052348015600f57600080fd5b506103178061001f6000396000f3fe608060405234801561001057600080fd5b50600436106100415760003560e01c80639b13197414610046578063df6e104d14610062578063fe35089f14610092575b600080fd5b610060600480360381019061005b9190610201565b6100c2565b005b61007c60048036038101906100779190610201565b61017d565b6040516100899190610249565b60405180910390f35b6100ac60048036038101906100a79190610201565b61019d565b6040516100b99190610249565b60405180910390f35b60008082815260200190815260200160002060009054906101000a900460ff1615610122576040517f08c379a0000000000000000000000000000000000000000000000000000000008152600401610119906102c1565b60405180910390fd5b600160008083815260200190815260200160002060006101000a81548160ff021916908315150217905550807f70920d52d0019947c9996e759adf5f3eb10d986bad73ed671d9948c689c4a46960405160405180910390a250565b60006020528060005260406000206000915054906101000a900460ff1681565b600080600083815260200190815260200160002060009054906101000a900460ff169050919050565b600080fd5b6000819050919050565b6101de816101cb565b81146101e957600080fd5b50565b6000813590506101fb816101d5565b92915050565b600060208284031215610217576102166101c6565b5b6000610225848285016101ec565b91505092915050565b60008115159050919050565b6102438161022e565b82525050565b600060208201905061025e600083018461023a565b92915050565b600082825260208201905092915050565b7f446f63756d656e7420616c726561647920726567697374657265642e00000000600082015250565b60006102ab601c83610264565b91506102b682610275565b602082019050919050565b600060208201905081810360008301526102da8161029e565b905091905056fea2646970667358221220f6858ef0c9077a995be73297867f41a39f9b066e6b1edae45fd751e75ea9f0a864736f6c634300081c0033",
  "linkReferences": {},
  "deployedLinkReferences": {}
}